:03000000020030CB
:03000B00020045AB
:100030001200511200567590007580000200647520
:10004000870102003FDD097DFADE057EF012009D8A
:1000500032D2AFD2A92253890F438902758C067D13
:10006000FA7EF022E590540F759000A2E072E172E2
:10007000E272E3E43365F0B4000612008E0200641D
:1000800012008602006475800FD28CD2F022758037
:1000900000C2F0C28C758A007DFA7EF022C28C7597
:0C00A0008000C2F0758A007DFA7EF0221C
:00000001FF
